:0300000002090AE8
:0C090A00787FE4F6D8FD7581110208002A
:0D08FD0048656C6C6F20576F726C642100B1
:10088900E4FDFCC3ED9FEC9E5015E4FBFA0BBB00A5
:0F089900010ABA04F8BBFBF50DBD00010C80E4A9
:0108A800222D
:1008EB00C2B0C2B1D2B28FA07F017E00120889C202
:0208FB00B22227
:1008D7007F011208EB7F381208EB7F061208EB7FC7
:0408E7000C0208EB0C
:100859008B0F8A108911D2B0C2B1AB0FAA10A9119E
:100869001208A9601AD2B2F5A07F017E0012088988
:10087900C2B274012511F511E43510F51080DB229F
:10080000E4F508F509F50AF50B7BFF7A0879FD8B0D
:100810000C8A0D890E1208C28E0A8F0B1208D77F20
:100820008F1208EBAB0CAA0DA90E120859E4F508BB
:10083000F509C3E509950BE50A6480F8E5086480CD
:100840009850DC7F1C1208EB7F197E001208890586
:0908500009E50970DD050880D9F5
:1008A900BB010689828A83E0225002E722BBFE024D
:0908B900E32289828A83E4932280
:1008C200E4FFFE1208A9600C0FEF70010E09E97037
:0508D200F20A80EF2294
:00000001FF
