:03000000020B05EB
:0C0B0500787FE4F6D8FD75810E0209042B
:1009E2004F4E450054574F00544852454500464F1C
:1009F20055520046495645005349580053455645FD
:100A02004E004549474854004E494E45005A45520A
:100A12004F00444956004D554C0053554200434C3B
:0A0A2200520045514C0041444400CD
:0B0B1100E4F5807590F0F5A0F5B0222F
:040A84007F327E003F
:100A8800E4FDFCC3ED9FEE6480F8EC64809850159B
:100A9800E4FBFA0BBB00010AEB64704A70F50DBD6C
:050AA80000010C80DEDE
:010AAD002226
:100AD100D2B78FA0D2B67F057E00120A88C2B602B5
:020AE1000A8881
:060A59008B0A8A0B890CD8
:100A5F00E4F50DF50EAB0AAA0BA90C850E82850DD8
:100A6F0083120A2CFF600D120AD1050EE50E70E5F8
:040A7F00050D80E100
:010A83002250
:100AE300C2B78FA0D2B67F647E00120A88C2B60254
:020AF3000A886F
:100AAE007F387E00120AE37F0C7E00120AE37F017C
:100ABE007E00120AE37F067E00120AE37F807E002C
:030ACE00020AE336
:10080000C290D291D292D29320940B120A84309447
:10081000FD7E007F072220950B120A843095FD7E15
:10082000007F082220960B120A843096FD7E007FFE
:10083000092220970B120A843097FD7E007F0A223E
:10084000D290C291D292D29320940B120A84309407
:10085000FD7E007F042220950B120A843095FD7ED8
:10086000007F052220960B120A843096FD7E007FC1
:10087000062220970B120A843097FD7E007F0B2200
:10088000D290D291C292D29320940B120A843094C7
:10089000FD7E007F012220950B120A843095FD7E9B
:1008A000007F022220960B120A843096FD7E007F84
:1008B000032220970B120A843097FD7E007F0C22C2
:1008C000D290D291D292C29320940B120A84309487
:1008D000FD7E007F0D2220950A120A843095FDE4EA
:1008E000FEFF2220960B120A843096FD7E007F0EBA
:1008F0002220970B120A843097FD7E007F0F227E04
:04090000FF7FFF2254
:0F0AF50074FFFFFEBEFF08BFFF0512080080F56B
:010B040022CE
:10090400120B11120AAE120AF58E088F097F017EAE
:1009140000120AE3E50870EEE509B4100050E79010
:10092400092AF82828730209A202095A0209620254
:10093400096A02097202097A02098202098A020911
:100944009202099A0209AA0209B20209BA0209C268
:100954000209CA0209D67BFF7A0979E2806E7BFF1D
:100964007A0979E680667BFF7A0979EA805E7BFF03
:100974007A0979F080567BFF7A0979F5804E7BFFFE
:100984007A0979FA80467BFF7A0979FE803E7BFFFB
:100994007A0A790480367BFF7A0A790A802E7BFFF3
:1009A4007A0A790F80267BFF7A0A7914801E7BFFEE
:1009B4007A0A791880167BFF7A0A791C800E7BFFED
:1009C4007A0A792080067BFF7A0A7924120A59026E
:0E09D400090A7BFF7A0A7928120A5902090AD9
:100A2C00BB010CE58229F582E5833AF583E022507F
:100A3C0006E92582F8E622BBFE06E92582F8E222C9
:0D0A4C00E58229F582E5833AF583E49322E3
:00000001FF
